{
  "_format": "hh-sol-artifact-1",
  "contractName": "LuckySevenGame",
  "sourceName": "contracts/LuckySevenGame.sol",
  "abi": [
    {
      "inputs": [
        {
          "internalType": "address",
          "name": "_token",
          "type": "address"
        }
      ],
      "stateMutability": "nonpayable",
      "type": "constructor"
    },
    {
      "inputs": [
        {
          "internalType": "uint256",
          "name": "_tokenGet",
          "type": "uint256"
        }
      ],
      "name": "buyToken",
      "outputs": [],
      "stateMutability": "payable",
      "type": "function"
    },
    {
      "inputs": [
        {
          "internalType": "uint256",
          "name": "_token",
          "type": "uint256"
        },
        {
          "internalType": "uint256",
          "name": "_matic",
          "type": "uint256"
        }
      ],
      "name": "sellToken",
      "outputs": [],
      "stateMutability": "nonpayable",
      "type": "function"
    },
    {
      "inputs": [
        {
          "internalType": "uint256",
          "name": "amt",
          "type": "uint256"
        }
      ],
      "name": "transfer",
      "outputs": [],
      "stateMutability": "nonpayable",
      "type": "function"
    },
    {
      "inputs": [
        {
          "internalType": "uint256",
          "name": "amt",
          "type": "uint256"
        }
      ],
      "name": "transferFrom",
      "outputs": [],
      "stateMutability": "nonpayable",
      "type": "function"
    }
  ],
  "bytecode": "0x608060405234801561001057600080fd5b50604051610c2b380380610c2b8339818101604052810190610032919061008d565b806000806101000a81548173ffffffffffffffffffffffffffffffffffffffff021916908373ffffffffffffffffffffffffffffffffffffffff16021790555050610108565b600081519050610087816100f1565b92915050565b6000602082840312156100a3576100a26100ec565b5b60006100b184828501610078565b91505092915050565b60006100c5826100cc565b9050919050565b600073ffffffffffffffffffffffffffffffffffffffff82169050919050565b600080fd5b6100fa816100ba565b811461010557600080fd5b50565b610b14806101176000396000f3fe60806040526004361061003f5760003560e01c806312514bba146100445780631897bcf31461006d5780632d296bf11461009657806377a11f7e146100b2575b600080fd5b34801561005057600080fd5b5061006b600480360381019061006691906107db565b6100db565b005b34801561007957600080fd5b50610094600480360381019061008f9190610835565b610241565b005b6100b060048036038101906100ab91906107db565b61046b565b005b3480156100be57600080fd5b506100d960048036038101906100d491906107db565b610607565b005b8060008054906101000a900473ffffffffffffffffffffffffffffffffffffffff1673ffffffffffffffffffffffffffffffffffffffff166370a08231306040518263ffffffff1660e01b815260040161013591906108fc565b60206040518083038186803b15801561014d57600080fd5b505afa158015610161573d6000803e3d6000fd5b505050506040513d601f19601f820116820180604052508101906101859190610808565b101561019057600080fd5b60008054906101000a900473ffffffffffffffffffffffffffffffffffffffff1673ffffffffffffffffffffffffffffffffffffffff1663a9059cbb33836040518363ffffffff1660e01b81526004016101eb92919061094e565b602060405180830381600087803b15801561020557600080fd5b505af1158015610219573d6000803e3d6000fd5b505050506040513d601f19601f8201168201806040525081019061023d91906107ae565b5050565b80471015610284576040517f08c379a000000000000000000000000000000000000000000000000000000000815260040161027b906109b7565b60405180910390fd5b60008054906101000a900473ffffffffffffffffffffffffffffffffffffffff1673ffffffffffffffffffffffffffffffffffffffff1663095ea7b330846040518363ffffffff1660e01b81526004016102df92919061094e565b602060405180830381600087803b1580156102f957600080fd5b505af115801561030d573d6000803e3d6000fd5b505050506040513d601f19601f8201168201806040525081019061033191906107ae565b5060008054906101000a900473ffffffffffffffffffffffffffffffffffffffff1673ffffffffffffffffffffffffffffffffffffffff166323b872dd3330856040518463ffffffff1660e01b815260040161038f93929190610917565b602060405180830381600087803b1580156103a957600080fd5b505af11580156103bd573d6000803e3d6000fd5b505050506040513d601f19601f820116820180604052508101906103e191906107ae565b610420576040517f08c379a000000000000000000000000000000000000000000000000000000000815260040161041790610977565b60405180910390fd5b3373ffffffffffffffffffffffffffffffffffffffff166108fc829081150290604051600060405180830381858888f19350505050158015610466573d6000803e3d6000fd5b505050565b8060008054906101000a900473ffffffffffffffffffffffffffffffffffffffff1673ffffffffffffffffffffffffffffffffffffffff166370a08231306040518263ffffffff1660e01b81526004016104c591906108fc565b60206040518083038186803b1580156104dd57600080fd5b505afa1580156104f1573d6000803e3d6000fd5b505050506040513d601f19601f820116820180604052508101906105159190610808565b1015610556576040517f08c379a000000000000000000000000000000000000000000000000000000000815260040161054d90610997565b60405180910390fd5b60008054906101000a900473ffffffffffffffffffffffffffffffffffffffff1673ffffffffffffffffffffffffffffffffffffffff1663a9059cbb33836040518363ffffffff1660e01b81526004016105b192919061094e565b602060405180830381600087803b1580156105cb57600080fd5b505af11580156105df573d6000803e3d6000fd5b505050506040513d601f19601f8201168201806040525081019061060391906107ae565b5050565b8060008054906101000a900473ffffffffffffffffffffffffffffffffffffffff1673ffffffffffffffffffffffffffffffffffffffff166370a08231336040518263ffffffff1660e01b815260040161066191906108fc565b60206040518083038186803b15801561067957600080fd5b505afa15801561068d573d6000803e3d6000fd5b505050506040513d601f19601f820116820180604052508101906106b19190610808565b10156106bc57600080fd5b60008054906101000a900473ffffffffffffffffffffffffffffffffffffffff1673ffffffffffffffffffffffffffffffffffffffff166323b872dd3330846040518463ffffffff1660e01b815260040161071993929190610917565b602060405180830381600087803b15801561073357600080fd5b505af1158015610747573d6000803e3d6000fd5b505050506040513d601f19601f8201168201806040525081019061076b91906107ae565b5050565b60008151905061077e81610ab0565b92915050565b60008135905061079381610ac7565b92915050565b6000815190506107a881610ac7565b92915050565b6000602082840312156107c4576107c3610a30565b5b60006107d28482850161076f565b91505092915050565b6000602082840312156107f1576107f0610a30565b5b60006107ff84828501610784565b91505092915050565b60006020828403121561081e5761081d610a30565b5b600061082c84828501610799565b91505092915050565b6000806040838503121561084c5761084b610a30565b5b600061085a85828601610784565b925050602061086b85828601610784565b9150509250929050565b61087e816109e8565b82525050565b60006108916016836109d7565b915061089c82610a35565b602082019050919050565b60006108b4601a836109d7565b91506108bf82610a5e565b602082019050919050565b60006108d7601a836109d7565b91506108e282610a87565b602082019050919050565b6108f681610a26565b82525050565b60006020820190506109116000830184610875565b92915050565b600060608201905061092c6000830186610875565b6109396020830185610875565b61094660408301846108ed565b949350505050565b60006040820190506109636000830185610875565b61097060208301846108ed565b9392505050565b6000602082019050818103600083015261099081610884565b9050919050565b600060208201905081810360008301526109b0816108a7565b9050919050565b600060208201905081810360008301526109d0816108ca565b9050919050565b600082825260208201905092915050565b60006109f382610a06565b9050919050565b60008115159050919050565b600073ffffffffffffffffffffffffffffffffffffffff82169050919050565b6000819050919050565b600080fd5b7f6572726f7220696e207472616e736665722066726f6d00000000000000000000600082015250565b7f696e73756666696369656e7420746f6b656e2062616c616e6365000000000000600082015250565b7f696e73756666696369656e74206d617469632062616c616e6365000000000000600082015250565b610ab9816109fa565b8114610ac457600080fd5b50565b610ad081610a26565b8114610adb57600080fd5b5056fea264697066735822122022dd8cf4a0b3c5299ea5ca8dd0224936e000701e16d6c0c4fe17a312f4aa9f4c64736f6c63430008070033",
  "linkReferences": {},
  "deployedLinkReferences": {}
}