{
  "_format": "hh-sol-artifact-1",
  "contractName": "LuckyGame",
  "sourceName": "contracts/LuckyGame.sol",
  "abi": [
    {
      "inputs": [
        {
          "internalType": "address",
          "name": "_token",
          "type": "address"
        }
      ],
      "stateMutability": "nonpayable",
      "type": "constructor"
    },
    {
      "inputs": [
        {
          "internalType": "uint256",
          "name": "_tokenGet",
          "type": "uint256"
        }
      ],
      "name": "buyToken",
      "outputs": [],
      "stateMutability": "payable",
      "type": "function"
    },
    {
      "inputs": [],
      "name": "owner",
      "outputs": [
        {
          "internalType": "address payable",
          "name": "",
          "type": "address"
        }
      ],
      "stateMutability": "view",
      "type": "function"
    },
    {
      "inputs": [
        {
          "internalType": "uint256",
          "name": "_token",
          "type": "uint256"
        },
        {
          "internalType": "uint256",
          "name": "_xdc",
          "type": "uint256"
        }
      ],
      "name": "sellToken",
      "outputs": [],
      "stateMutability": "nonpayable",
      "type": "function"
    },
    {
      "inputs": [
        {
          "internalType": "uint256",
          "name": "amt",
          "type": "uint256"
        }
      ],
      "name": "transfer",
      "outputs": [],
      "stateMutability": "nonpayable",
      "type": "function"
    },
    {
      "inputs": [
        {
          "internalType": "uint256",
          "name": "amt",
          "type": "uint256"
        }
      ],
      "name": "transferFrom",
      "outputs": [],
      "stateMutability": "nonpayable",
      "type": "function"
    }
  ],
  "bytecode": "0x608060405234801561001057600080fd5b5060405161066b38038061066b83398101604081905261002f9161005d565b600180546001600160a01b039092166001600160a01b0319928316179055600080549091163317905561008d565b60006020828403121561006f57600080fd5b81516001600160a01b038116811461008657600080fd5b9392505050565b6105cf8061009c6000396000f3fe60806040526004361061004a5760003560e01c806312514bba1461004f5780631897bcf3146100715780632d296bf11461009157806377a11f7e146100a45780638da5cb5b146100c4575b600080fd5b34801561005b57600080fd5b5061006f61006a36600461051c565b610100565b005b34801561007d57600080fd5b5061006f61008c366004610535565b6101f1565b61006f61009f36600461051c565b6103ae565b3480156100b057600080fd5b5061006f6100bf36600461051c565b610468565b3480156100d057600080fd5b506000546100e4906001600160a01b031681565b6040516001600160a01b03909116815260200160405180910390f35b6001546040516370a0823160e01b815230600482015282916001600160a01b0316906370a0823190602401602060405180830381865afa158015610148573d6000803e3d6000fd5b505050506040513d601f19601f8201168201806040525081019061016c9190610557565b101561017757600080fd5b60015460405163a9059cbb60e01b8152336004820152602481018390526001600160a01b039091169063a9059cbb906044015b6020604051808303816000875af11580156101c9573d6000803e3d6000fd5b505050506040513d601f19601f820116820180604052508101906101ed9190610570565b5050565b804710156102465760405162461bcd60e51b815260206004820152601860248201527f696e73756666696369656e74205844432062616c616e6365000000000000000060448201526064015b60405180910390fd5b60015460405163095ea7b360e01b8152306004820152602481018490526001600160a01b039091169063095ea7b3906044016020604051808303816000875af1158015610297573d6000803e3d6000fd5b505050506040513d601f19601f820116820180604052508101906102bb9190610570565b506001546040516323b872dd60e01b8152336004820152306024820152604481018490526001600160a01b03909116906323b872dd906064016020604051808303816000875af1158015610313573d6000803e3d6000fd5b505050506040513d601f19601f820116820180604052508101906103379190610570565b61037c5760405162461bcd60e51b81526020600482015260166024820152756572726f7220696e207472616e736665722066726f6d60501b604482015260640161023d565b604051339082156108fc029083906000818181858888f193505050501580156103a9573d6000803e3d6000fd5b505050565b6001546040516370a0823160e01b815230600482015282916001600160a01b0316906370a0823190602401602060405180830381865afa1580156103f6573d6000803e3d6000fd5b505050506040513d601f19601f8201168201806040525081019061041a9190610557565b10156101775760405162461bcd60e51b815260206004820152601a60248201527f696e73756666696369656e7420746f6b656e2062616c616e6365000000000000604482015260640161023d565b6001546040516370a0823160e01b815233600482015282916001600160a01b0316906370a0823190602401602060405180830381865afa1580156104b0573d6000803e3d6000fd5b505050506040513d601f19601f820116820180604052508101906104d49190610557565b10156104df57600080fd5b6001546040516323b872dd60e01b8152336004820152306024820152604481018390526001600160a01b03909116906323b872dd906064016101aa565b60006020828403121561052e57600080fd5b5035919050565b6000806040838503121561054857600080fd5b50508035926020909101359150565b60006020828403121561056957600080fd5b5051919050565b60006020828403121561058257600080fd5b8151801515811461059257600080fd5b939250505056fea2646970667358221220879177d8b78ef7f5c37015f5e6657b92f921255e8cb9790962a5b36714514c5564736f6c63430008100033",
  "linkReferences": {},
  "deployedLinkReferences": {}
}